:100000000C9440000C9474000C9474000C947400D4
:100010000C9474000C9474000C9474000C94740090
:100020000C9474000C9474000C9474000C94740080
:100030000C9474000C9474000C9474000C94F002F2
:100040000C9474000C9474000C9474000C94740060
:100050000C9474000C9474000C9474000C94740050
:100060000C9474000C9474000C9474000C94740040
:100070000C9474000C9474000C947400D5042A053C
:1000800011241FBECFEFCDBFDFE3DEBF8091400064
:1000900080934000811105C098ED21E094BF20932A
:1000A00041008CBB18E3A0E0B8E3E0E5FEE002C04D
:1000B00005900D92A830B107D9F728E3A8E0B8E37E
:1000C00001C01D92A333B207E1F710E0CFE3D0E007
:1000D00004C02197FE010E946D05CE33D107C9F7F8
:1000E0000E942A030C94E8060C9400008F929F92C1
:1000F000AF92BF92CF92DF92EF92FF92CF93209177
:100100001B3830911C3882179307E8F54B01AA245D
:10011000BB24C82DC52ED62EE72EFF24BC2DA42F20
:1001200020912138222361F0829E40011124C92DA3
:100130002C9D60011124BD2D249FF0011124AF2FAF
:10014000E0912738E0902238F0902338309124381D
:10015000E31323C09C01220F331F820F931F8E0DC8
:100160009F1DE0912438E80FF92FF11DC083E09125
:100170002538E80FF92FF11DB08320912638820F22
:10018000911DFC01A083CF91FF90EF90DF90CF9065
:10019000BF90AF909F908F900895880F991F880F00
:1001A000991F8E0D9F1D472F5527662777272223DE
:1001B00049F030E0249F7001259FF00C349FF00C33
:1001C00011244F2DE80FF92FF11D4083CACF9FB79F
:1001D000F89488E08093840A80918E0A81FFFCCF96
:1001E00080918D0AE091A20AF091A30A209115381E
:1001F0003091163840911738509118389FBF80FFC2
:1002000007C0E730F10520F42F5F3F4F4F4F5F4F9E
:10021000AEEFB1E00E9482056E0F7F1F811D911D20
:10022000660F771F881F991F08950F931F93CF9311
:10023000DF93CDB7DEB72997CDBFDEBF80912238DF
:1002400090912338892B09F47CC00E94E70000912B
:1002500028381091293820912A3830912B3860178E
:1002600071078207930740F4609328387093293808
:1002700080932A3890932B38009128381091293890
:1002800020912A3830912B38601B710B820B930B15
:100290006C32714081059105C0F2F89480911D384F
:1002A00090911E3889839A83E0912238F091233807
:1002B000DF0111968081898790911938E0912C385F
:1002C000F0912D3880912E38992309F442C0908105
:1002D000982B98879081809589238F838F818C8339
:1002E00088E08B8358856F8149853B812C8189818A
:1002F0009A81508347FD252F3A952083262F39F088
:10030000441F00C000006083000000C0F2CF38E04E
:100310004D9160830000019761F7E0932C38F093D2
:100320002D3849873B832C8389839A8378940E9454
:10033000E700609328387093293880932A38909387
:100340002B382996CDBFDEBFDF91CF911F910F9142
:1003500008959081982B98879081809589238F8329
:100360008F818E8388E08D8358856F8149853D819B
:100370002E8189819A81508347FD252F00C000C0BE
:10038000208300C000C000C000C000C06083000027
:10039000262F3A9541F0441F000000C000C000C065
:1003A00000C000C0E8CF38E04D9100C0608300C0BD
:1003B000019709F7E0932C38F0932D3849873D8356
:1003C0002E83B2CFCF92DF92EF92FF92CF93DF9343
:1003D0006B017C010E94E700EB010E94E7006C1BAF
:1003E0007D0B683E7340A0F0C114D104E104F10418
:1003F00039F4DF91CF91FF90EF90DF90CF90089587
:1004000081E0C81AD108E108F108C851DC4FE5CFF6
:10041000C114D104E104F10401F7EBCFAF92BF9214
:10042000CF92DF92EF92FF920F931F93CF93DF93C0
:10043000C0910838D091093800911B3810911C38B0
:100440000115110531F16C9F90016D9F300D112444
:10045000C32ED12CF12CE12CFE2CED2CDC2CCC2449
:100460004C9F90014D9F300D1124C32A8C9F900109
:100470008D9F300D1124E32AB12CA12CB701A601C8
:10048000C5010E9476008FEFA81AB80A0A151B054D
:10049000A9F70E941501809100388823D1F0219698
:1004A000C0930838D0930938CF3FD10514F010928B
:1004B000003865E070E080E090E0DF91CF911F911F
:1004C0000F91FF90EF90DF90CF90BF90AF900C9482
:1004D000E2012197C0930838D09309381C161D06F5
:1004E00044F381E080930038E4CFCF93DF938231EF
:1004F00088F590E0EC01C25CD14728812F3F51F193
:10050000AC01445D5147DA01EC91B0E2EB9FF001A0
:100510001124FC5F26833081232391F49C01265E05
:100520003147D9012C913097C1F02830B0F4709642
:10053000E20FF11D3FB7F8942081277F20833FBF52
:10054000885F9147FC018081882321F0803141F050
:100550008038C1F0DF91CF910895F0E0E0E0EACF7C
:100560008881DA019C91913059F4853010F0880F20
:1005700082959091010A809589238093010AEACFA0
:10058000880FF7CF1092A006E5CF8091480482FB38
:10059000882780F908958231F0F490E0FC01E25C54
:1005A000F14720812F3FB9F0FC01E45DF147E08184
:1005B00030E2E39FF0011124FC5F60FF0DC0218356
:1005C000865E9147DC018C91E80FF11D808961FF07
:1005D00005C08860808B08952283F2CF877FFACF91
:1005E000EF93FF93EFE0F8E38F938FB78F939F9391
:1005F0007F9371E0808191818C5E9F4F8083918396
:10060000885E934018F0808391837F5F9281970F7B
:10061000928380E09381981F93839481981F9483A1
:100620009581981F958396819F5F968397819F4FB1
:10063000978390859F4F908791859F4F918781E009
:1006400080938D0A7F919F918F918FBF8F91FF91A2
:10065000EF911895CF93DF93CDB7DEB76297CDBFFB
:10066000DEBF88ED90E084BF90936100E0E0F6E0AB
:1006700083E582838AE0858380E2838311E01083AF
:10068000109202021093030A8EEF8093260A809341
:10069000270A8BE08093000AE0E8FAE08DEF91E012
:1006A00086A797A7118280E88283148781E18083DF
:1006B000789462E08CE00E94CB0280911F38909188
:1006C000203897FD39C061E00E94CB0280911F382D
:1006D0000E94750210931A380E94150137E0632EAC
:1006E000712C0E94C502811113C0809101388130A4
:1006F00079F480910E3890E00196B3010E943A059A
:1007000080930E3868EC70E080E090E00E94E20197
:100710000E94C50280930138E0910E38E73008F757
:10072000F0E0EB56FC4F0C946D059F032E046F0414
:10073000AD04B304B704BA0410921A38CDCF212CFB
:10074000312C2101F12CE12C20911B3830911C38E7
:1007500000910A3810910B38E216F30608F070C0C9
:1007600050E040E0C201B1010E944E05200F311F50
:10077000AAEFB5E00E947305DC01CB019058AF4FA2
:10078000BF4FCD01BB2797FDB095AB2F8E3F41E00A
:10079000940790F5582F8F3F910508F44BC02EEF2A
:1007A000281B822F60E05FEF882E912CC401B0E0FF
:1007B000A0E0DC0199278827A62EB12C850130E026
:1007C00020E0802B912BA22BB32BC52ED12CA60180
:1007D00070E060E0762F652F542F4427482B592B6B
:1007E0006A2B7B2BC7010E9476008FEFE81AF80A6C
:1007F0009FEF491A590AA8CF8C3F43E0940760F451
:1008000062E0680F5FEF8D3F42E0940718F05CEF05
:10081000581B6FEF80E0C8CF8A3F45E0940769F02E
:100820006AEF681B8B3F44E0940740F48C5F6FEFE6
:1008300050E0BACF60E08FEFB7CF60E050E0FBCF81
:100840000E941501139500930A3810930B3861E04C
:1008500070E080E090E00E94E20143CF8CE0EAEE9D
:10086000FDE8DE01119601900D928A95E1F7F12CD9
:10087000E12C00910C3810E0F701E00FF11FE3705C
:10088000FF27CF01880F991FE80FF91F81E090E043
:100890008C0F9D1FE80FF91F8081418150E070E0AF
:1008A00060E0762F652F542F4427682B8281482BD8
:1008B000C7010E9476009FEFE91AF90A26E0E216C6
:1008C000F104B9F60E9415010F5F1F4F0370112745
:1008D00000930C3868EC70E080E090E0BCCF82E1DF
:1008E000E6EFFDE8DE01119601900D928A95E1F7A1
:1008F00010E000E0E0900D38F12CC8018E0D9F1D36
:1009000066E070E00E943A05FC01EE0FFF1FE80F61
:10091000F91F81E090E08C0F9D1FE80FF91F808187
:10092000418150E070E060E0762F652F542F44271E
:10093000682B8281482BC8010E9476000F5F1F4FF1
:1009400006301105B9F60E941501C7010196B801DC
:100950000E943A0580930D38BDCF40E060E08EE7FD
:100960000E940E02BECE40E06EE780E0F9CF4EE777
:1009700060E0FBCFE0901B38F0901C38E114F104EC
:1009800069F010E000E040E050E0BA01C8010E94C8
:1009900076000F5F1F4FE016F106A9F70E941501C0
:1009A00064E670E080E090E056CF10921A38109222
:1009B0002138109228381092293810922A38109233
:1009C0002B3881E080932738809324381092253883
:1009D00092E0909326388093193882E190E08093DA
:1009E0001D3890931E380E94C3058093223890933F
:1009F0002338009731F122E1FC0111922A95E9F7A1
:100A000086E090E080931B3890931C3885E090E05E
:100A100080931F389093203880911A38882339F0BA
:100A200061E085E00E94CB0285E00E94750284E2CD
:100A300094E080932C3890932D3880E180932E3869
:100A4000089510921D3810921E3810921B38109283
:100A50001C38DCCF80912238909123380E945F06A9
:100A600080911F389091203897FD03C060E00C946E
:100A7000CB02089597FB072E16F4009407D077FD5C
:100A800009D00E948D0507FC05D03EF49095819514
:100A90009F4F0895709561957F4F0895052E97FBA0
:100AA0001EF400940E94650557FD07D00E94A10521
:100AB00007FC03D04EF40C94650550954095309595
:100AC00021953F4F4F4F5F4F0895909580957095BA
:100AD00061957F4F8F4F9F4F0895EE0FFF1F059039
:100AE000F491E02D0994A29FB001B39FC001A39F90
:100AF000700D811D1124911DB29F700D811D112457
:100B0000911D08950E947305A59F900DB49F900DAF
:100B1000A49F800D911D11240895AA1BBB1B51E1B8
:100B200007C0AA1FBB1FA617B70710F0A61BB70B5D
:100B3000881F991F5A95A9F780959095BC01CD0102
:100B40000895A1E21A2EAA1BBB1BFD010DC0AA1F0E
:100B5000BB1FEE1FFF1FA217B307E407F50720F026
:100B6000A21BB30BE40BF50B661F771F881F991FA1
:100B70001A9469F760957095809590959B01AC01EA
:100B8000BD01CF0108950F931F93CF93DF93823060
:100B9000910510F482E090E0E0913138F091323824
:100BA00030E020E0B0E0A0E0309799F42115310565
:100BB00009F44AC0281B390B24303105D8F58A8145
:100BC0009B816115710589F1FB0182839383FE018D
:100BD00011C0408151810281138148175907E0F00B
:100BE0004817590799F4109761F012960C931297D1
:100BF00013961C933296CF01DF91CF911F910F91E5
:100C000008950093313810933238F4CF211531050F
:100C100051F04217530738F0A901DB019A01BD01D9
:100C2000DF01F801C1CFEF01F9CF80933138909304
:100C30003238CDCFFE01E20FF31F81939193225002
:100C4000310928833983D7CF20912F38309130381C
:100C5000232B41F4209104383091053820932F380C
:100C60003093303820910238309103382115310506
:100C700041F42DB73EB74091063850910738241BF8
:100C8000350BE0912F38F0913038E217F307A0F4DC
:100C90002E1B3F0B2817390778F0AC014E5F5F4FD2
:100CA0002417350748F04E0F5F1F40932F3850939D
:100CB0003038819391939FCFF0E0E0E09CCFCF93C9
:100CC000DF930097E9F0FC01329712821382A09122
:100CD0003138B0913238ED0130E020E01097A1F4C6
:100CE00020813181820F931F20912F38309130382D
:100CF0002817390709F061C0E0932F38F093303896
:100D0000DF91CF910895EA01CE17DF07E8F54A8118
:100D10005B819E0141155105B1F7E901EA83FB832F
:100D200049915991C40FD51FEC17FD0761F48081DB
:100D300091810296840F951FE901888399838281AE
:100D400093818A839B83F0E0E0E012968D919C91E1
:100D500013970097B9F52D913C911197CD0102960B
:100D6000820F931F20912F38309130382817390780
:100D700039F6309751F51092313810923238A093ED
:100D80002F38B0933038BCCFC283D3834081518198
:100D9000840F951FC817D90761F44E5F5F4F888194
:100DA0009981480F591F408351838A819B81828397
:100DB00093832115310509F0B0CFE0933138F093DA
:100DC00032389ECFFD01DC01C0CF12821382D7CF13
:100DD00010E0CFE3D0E004C0FE010E946D05219633
:0A0DE000C034D107C9F7F894FFCF23
:100DEA00BF810C6620A8A41057075A6333597F4C59
:100DFA0099B2196626998C33B24C597F265910102C
:100E0A008000000000101010000000000000100018
:100E1A00040506070504030201000001020301029A
:100E2A0003000000000001010101010102020202A7
:100E3A000000000010204080201008040201010276
:060E4A0004080204080187
:080E50000101000033388000AD
:00000001FF
