:100000000C9440000C9474000C9474000C947400D4
:100010000C9474000C9474000C9474000C94740090
:100020000C9474000C9474000C9474000C94740080
:100030000C9474000C9474000C9474000C945A0387
:100040000C9474000C9474000C9474000C94740060
:100050000C9474000C9474000C9474000C94740050
:100060000C9474000C9474000C9474000C94740040
:100070000C9474000C9474000C9474004B05A0054F
:1000800011241FBECFEFCDBFDFE3DEBF8091400064
:1000900080934000811105C098ED21E094BF20932A
:1000A00041008CBB18E3A0E0B8E3ECE9F0E102C04A
:1000B00005900D92AC30B107D9F728E3ACE0B8E376
:1000C00001C01D92A233B207E1F710E0CFE3D0E008
:1000D00004C02197FE010E94EB06CE33D107C9F779
:1000E0000E9494030C941D080C9400008F929F9220
:1000F000AF92BF92CF92DF92EF92FF92CF934B01DC
:10010000AA24BB24C82DC52ED62EE72EFF24BC2D35
:10011000A42F20912038222361F0829E40011124D7
:10012000C92D2C9D60011124BD2D249FF0011124A7
:10013000AF2FE0912638E0902138F09022383091AE
:100140002338E31323C09C01220F331F820F931F18
:100150008E0D9F1DE0912338E80FF92FF11DC0830C
:10016000E0912438E80FF92FF11DB0832091253854
:10017000820F911DFC01A083CF91FF90EF90DF9043
:10018000CF90BF90AF909F908F900895880F991F48
:10019000880F991F8E0D9F1D472F5527662777279C
:1001A000222349F030E0249F7001259FF00C349FFA
:1001B000F00C11244F2DE80FF92FF11D4083CACF09
:1001C000CF92DF92EF92FF920F931F93CF93DF9323
:1001D00000911A3810911B3801151105A1F06B011F
:1001E0007C01D0E0C0E080911A3890911B38C8178C
:1001F000D90728F4B701A601CE010E947600219606
:100200000C171D0781F7DF91CF911F910F91FF9080
:10021000EF90DF90CF9008959FB7F89488E0809397
:10022000840A80918E0A81FFFCCF80918D0AE09133
:10023000A20AF091A30A2091143830911538409108
:100240001638509117389FBF80FF07C0E730F1057F
:1002500020F42F5F3F4F4F4F5F4FAEEFB1E00E9452
:1002600073066E0F7F1F811D911D660F771F881FFC
:10027000991F08950F931F93CF93DF93CDB7DEB7E8
:100280002997CDBFDEBF8091213890912238892BEC
:1002900009F47CC00E940C01009127381091283885
:1002A0002091293830912A38601771078207930707
:1002B00040F46093273870932838809329389093BE
:1002C0002A38009127381091283820912938309108
:1002D0002A38601B710B820B930B6C3271408105C5
:1002E0009105C0F2F89480911C3890911D38898353
:1002F0009A83E0912138F0912238DF0111968081B4
:10030000898790911838E0912B38F0912C388091A2
:100310002D38992309F442C09081982B98879081B9
:10032000809589238F838F818C8388E08B83588588
:100330006F8149853B812C8189819A81508347FD5A
:10034000252F3A952083262F39F0441F00C0000046
:100350006083000000C0F2CF38E04D916083000060
:10036000019761F7E0932B38F0932C3849873B8352
:100370002C8389839A8378940E940C016093273898
:10038000709328388093293890932A382996CDBFC6
:10039000DEBFDF91CF911F910F9108959081982B2F
:1003A00098879081809589238F838F818E8388E0C1
:1003B0008D8358856F8149853D812E8189819A8100
:1003C000508347FD252F00C000C0208300C000C01F
:1003D00000C000C000C060830000262F3A9541F0A5
:1003E000441F000000C000C000C000C000C0E8CF33
:1003F00038E04D9100C0608300C0019709F7E09399
:100400002B38F0932C3849873D832E83B2CFCF927F
:10041000DF92EF92FF92CF93DF936B017C010E94FA
:100420000C01EB010E940C016C1B7D0B683E7340BC
:10043000A0F0C114D104E104F10439F4DF91CF91AB
:10044000FF90EF90DF90CF90089581E0C81AD10817
:10045000E108F108C851DC4FE5CFC114D104E10433
:10046000F10401F7EBCF5F926F927F928F929F9290
:10047000AF92BF92CF92DF92EF92FF920F931F93B2
:10048000CF93DF93CDB7DEB72697CDBFDEBF582E13
:10049000062FE42E20E031E02D833E83912C812C29
:1004A000682E712CC62ED12CA42EB12C689C9001E4
:1004B000699C300D789C300D1124C89CC001C99CEA
:1004C000900DD89C900D1124492F50E070E060E011
:1004D000762F652F542F4427DB01CA01A32B898374
:1004E0009A83AB83BC83A89CC001A99C900DB89C47
:1004F000900D112429813A814B815C81292BCA01FD
:10050000B9010E94E0000E943A0165E070E080E0DD
:1005100090E00E9407023FEF831A930A4D815E81AB
:10052000415051094D835E83452B09F0BFCF5FEFEA
:10053000E59E70011124059F800111249FEF599EB3
:10054000C001112489839A83812C99249394612F6B
:1005500070E090E080E0982F872F762F6627AA81A1
:100560008A2B6F290E94E0000E943A0165E070E04A
:1005700080E090E00E940702B1E08B1A9108EA182F
:10058000FB080C191D0929813A812619370929838D
:100590003A8381149104D9F62696CDBFDEBFDF9150
:1005A000CF911F910F91FF90EF90DF90CF90BF9070
:1005B000AF909F908F907F906F905F900895CF93B2
:1005C000DF93823188F590E0EC01C657DF46288141
:1005D0002F3F51F1AC0148585F46DA01EC91B0E28F
:1005E000EB9FF0011124FC5F26833081232391F4DB
:1005F0009C012A593F46D9012C913097C1F02830EF
:10060000B0F47096E20FF11D3FB7F8942081277F78
:1006100020833FBF8C5A9F46FC018081882321F0B4
:10062000803141F08038C1F0DF91CF910895F0E042
:10063000E0E0EACF8881DA019C91913059F485306D
:1006400010F0880F82959091010A809589238093FC
:10065000010AEACF880FF7CF1092A006E5CF80916C
:10066000480482FB882780F908958231F0F490E0F5
:10067000FC01E657FF4620812F3FB9F0FC01E85806
:10068000FF46E08130E2E39FF0011124FC5F60FF50
:100690000DC021838A599F46DC018C91E80FF11D22
:1006A000808961FF05C08860808B08952283F2CF26
:1006B000877FFACFEF93FF93EEE0F8E38F938FB746
:1006C0008F939F937F9371E0808191818C5E9F4F88
:1006D00080839183885E934018F0808391837F5F4D
:1006E0009281970F928380E09381981F93839481E6
:1006F000981F94839581981F958396819F5F968319
:1007000097819F4F978390859F4F908791859F4FAB
:10071000918781E080938D0A7F919F918F918FBF08
:100720008F91FF91EF911895CF93DF93CDB7DEB7FF
:100730002C97CDBFDEBF88ED90E084BF9093610021
:10074000E0E0F6E083E582838AE0858380E28383CC
:1007500001E00083109202020093030A8EEF80935F
:10076000260A8093270A8BE08093000AE0E8FAE0EB
:100770008DEF91E086A797A7118280E88283048796
:1007800081E18083789462E08CE00E94350380915F
:100790001E3890911F3897FD58C061E00E943503C4
:1007A00080911E380E94DF02009319380E943A019E
:1007B000C12CD12C7601CA940E942F03811114C040
:1007C00080910038813081F480910D3890E001965D
:1007D00066E070E00E94C30680930D3868EC70E01C
:1007E00080E090E00E9407020E942F03809300386F
:1007F00080910D38823009F4DDC050F58823A1F1D5
:100800008130D1F66FEF7FEF8FEF90E00E94E00034
:100810000E943A0164E670E080E090E00E940702E6
:1008200040911C3850911D3870E060E08091213873
:10083000909122380E9416080E943A0164E670E006
:1008400080E090E00E940702B7CF10921938AECF37
:10085000843009F41DC108F415C14FEF60E0853004
:1008600009F0AACF80E011C1B12CA12C1B861C86F7
:10087000BEEF9B2E412C512C320119861A86809195
:100880001A3890911B3809851A850817190708F03E
:100890007BC0C301B20126E030E040E050E00E949E
:1008A00054062A0D3B1DAAEFB5E00E94A806AB0135
:1008B000BC0150586F4F7F4FAB01772757FD7095A4
:1008C000672F4E3F11E05107D0F5842F4F3F510560
:1008D00008F454C0292D241B422F90E08FEF242EC2
:1008E000312CA10170E060E0BA01552744279D83B7
:1008F0001E822D813E81890130E020E0402B512B6A
:10090000622B732B8F8318860F811885C801B0E086
:10091000A0E0BA2FA92F982F8827482B592B6A2B94
:100920007B2B89859A850E94760009851A850F5F41
:100930001F4F09871A871FEF611A710AA0CF4C3F1A
:1009400083E0580768F44D3F92E0590728F492E09D
:10095000940F8FEF40E0C3CF8CEF841B9FEFFACF53
:100960004A3FA5E05A0769F09AEF941B4B3FB4E069
:100970005B0740F44C5F9FEF80E0B1CF90E04FEF1A
:10098000AECF90E080E0FBCF0E943A0164E170E0DE
:1009900080E090E00E9407020B851C850F5F1F4FCF
:1009A0000B871C87B3940B851C850115114009F03A
:1009B00061CF02CF40911C3850911D3870E060E04B
:1009C00080912138909122380E9416080E94FC05DF
:1009D0002B013C010E94FC054B015C010E94FC05BF
:1009E0008B019C0180910C3891E0980F90930C380A
:1009F00066E00E94B706492F50E049875A878091E8
:100A00001A3890911B3848175907A8F5C901B80141
:100A1000A70196010E945406CB01772766278B0118
:100A20009C0100271127332709831A832B833C83DA
:100A3000C501B401A70196010E9454068824962E90
:100A4000A72EB82EAA24BB2409811A812B813C81B0
:100A5000802A912AA22AB32AC301B201A7019601D2
:100A60000E945406D501C401862BAC01BD018985C5
:100A70009A850E9476000E943A0168EC70E080E05E
:100A800090E0E0CE40E060E08FEF0E94330294CE31
:100A900040E06FEFE7CE1092193810922038109294
:100AA0002738109228381092293810922A3881E07D
:100AB00080932638809323381092243892E09093C4
:100AC00025388093183882E190E080931C38909309
:100AD0001D380E94F10680932138909322380097A8
:100AE00031F122E1FC0111922A95E9F786E090E0CC
:100AF00080931A3890931B3885E090E080931E38DD
:100B000090931F3880911938882339F061E085E08F
:100B10000E94350385E00E94DF0284E294E0809326
:100B20002B3890932C3880E180932D3808951092C3
:100B30001C3810921D3810921A3810921B38DCCFD6
:100B400080912138909122380E948D0780911E3823
:100B500090911F3897FD03C060E00C943503089511
:100B60008F929F92AF92BF92CF92DF92EF92FF92BD
:100B7000CF93DF93EC01688179818A819B81611534
:100B800071058105910521F464E279ED8BE597E02B
:100B90002DE133EF41E050E00E94540649015A0133
:100BA0009B01AC01A7EAB1E40E9473066B017C01D2
:100BB000ACEEB4EFA50194010E948106C60ED71ECB
:100BC000E81EF91EF7FE06C081E0C81AD108E10848
:100BD00080E8F80AC882D982EA82FB82C701B6019E
:100BE0009F77DF91CF91FF90EF90DF90CF90BF90F4
:100BF000AF909F908F9008958F929F92AF92BF92E7
:100C0000CF92DF92EF92FF9260910138709102389B
:100C10008091033890910438611571058105910523
:100C200021F464E279ED8BE597E02DE133EF41E0CB
:100C300050E00E94540649015A019B01AC01A7EA09
:100C4000B1E40E9473066B017C01ACEEB4EFA50128
:100C500094010E948106C60ED71EE81EF91EF7FEFB
:100C600006C081E0C81AD108E10880E8F80AC092FD
:100C70000138D0920238E0920338F0920438C7016C
:100C8000B6019F77FF90EF90DF90CF90BF90AF902D
:100C90009F908F90089560930138709302388093ED
:100CA0000338909304380895052E97FB1EF40094A2
:100CB0000E946B0657FD07D00E94860607FC03D0F2
:100CC0004EF40C946B0650954095309521953F4F0E
:100CD0004F4F5F4F089590958095709561957F4F28
:100CE0008F4F9F4F08950E94A806A59F900DB49F17
:100CF000900DA49F800D911D11240895B7FF0C94B1
:100D000073060E947306821B930B0895A1E21A2EAC
:100D1000AA1BBB1BFD010DC0AA1FBB1FEE1FFF1F9F
:100D2000A217B307E407F50720F0A21BB30BE40BEF
:100D3000F50B661F771F881F991F1A9469F7609536
:100D40007095809590959B01AC01BD01CF010895F0
:100D5000A29FB001B39FC001A39F700D811D1124FC
:100D6000911DB29F700D811D1124911D0895991B35
:100D700079E004C0991F961708F0961B881F7A9592
:100D8000C9F78095089597FB072E16F4009407D0B5
:100D900077FD09D00E94D70607FC05D03EF4909558
:100DA00081959F4F0895709561957F4F0895AA1B77
:100DB000BB1B51E107C0AA1FBB1FA617B70710F046
:100DC000A61BB70B881F991F5A95A9F78095909578
:100DD000BC01CD010895EE0FFF1F0590F491E02DA9
:100DE00009940F931F93CF93DF938230910510F4F2
:100DF00082E090E0E0913038F091313830E020E04E
:100E0000B0E0A0E0309799F42115310509F44AC00B
:100E1000281B390B24303105D8F58A819B81611557
:100E2000710589F1FB0182839383FE0111C040812A
:100E300051810281138148175907E0F0481759077B
:100E400099F4109761F012960C93129713961C93D5
:100E50003296CF01DF91CF911F910F9108950093AA
:100E6000303810933138F4CF2115310551F0421745
:100E7000530738F0A901DB019A01BD01DF01F80138
:100E8000C1CFEF01F9CF8093303890933138CDCF77
:100E9000FE01E20FF31F81939193225031092883C1
:100EA0003983D7CF20912E3830912F38232B41F41E
:100EB000209107383091083820932E3830932F38FE
:100EC00020910538309106382115310541F42DB7B0
:100ED0003EB74091093850910A38241B350BE091F8
:100EE0002E38F0912F38E217F307A0F42E1B3F0B9A
:100EF0002817390778F0AC014E5F5F4F241735078C
:100F000048F04E0F5F1F40932E3850932F38819337
:100F100091939FCFF0E0E0E09CCFCF93DF930097D9
:100F2000E9F0FC01329712821382A0913038B0911F
:100F30003138ED0130E020E01097A1F420813181BB
:100F4000820F931F20912E3830912F3828173907A0
:100F500009F061C0E0932E38F0932F38DF91CF91E4
:100F60000895EA01CE17DF07E8F54A815B819E010B
:100F700041155105B1F7E901EA83FB834991599184
:100F8000C40FD51FEC17FD0761F480819181029693
:100F9000840F951FE90188839983828193818A83D5
:100FA0009B83F0E0E0E012968D919C91139700975F
:100FB000B9F52D913C911197CD010296820F931FA7
:100FC00020912E3830912F382817390739F630976D
:100FD00051F51092303810923138A0932E38B093DA
:100FE0002F38BCCFC283D38340815181840F951F9A
:100FF000C817D90761F44E5F5F4F88819981480F08
:10100000591F408351838A819B8182839383211559
:10101000310509F0B0CFE0933038F09331389ECFEE
:10102000FD01DC01C0CF12821382D7CFDC0101C0E9
:101030006D9341505040E0F7089510E0CFE3D0E0C9
:1010400004C0FE010E94EB062196C034D107C9F707
:04105000F894FFCF42
:1010540010108000000000101010000000000000BC
:101064001000040506070504030201000001020341
:10107400010203000000000001010101010102025C
:101084000202000000001020408020100804020129
:08109400010204080204080136
:0C109C000101000000000032388000005C
:00000001FF
